:107800000C94343C0C94513C0C94513C0C94513CE1
:107810000C94513C0C94513C0C94513C0C94513CB4
:107820000C94513C0C94513C0C94513C0C94513CA4
:107830000C94513C0C94513C0C94513C0C94513C94
:107840000C94513C0C94513C0C94513C0C94513C84
:107850000C94513C0C94513C0C94513C0C94513C74
:107860000C94513C0C94513C11241FBECFEFD8E036
:10787000DEBFCDBF11E0A0E0B1E0E6EFFEE702C061
:1078800005900D92A230B107D9F712E0A2E0B1E065
:1078900001C01D92AD30B107E1F70E940E3D0C947E
:1078A000793F0C94003CE0ECF0E0908195FFFDCF37
:1078B0008093C6000895CF93C82F859585958595AB
:1078C0008595805DCF70CA3014F0C95A01C0C05D83
:1078D0000E94533C8C2F0E94533CCF910895CF922D
:1078E000DF92EF92FF92CF93DF93CC24DD247601D9
:1078F000C0ECD0E013C00894C11CD11CE11CF11CE9
:1079000081E2C81681EAD80687E0E80680E0F8063A
:1079100028F0E0910201F091030109958881882304
:1079200054F78091C600DF91CF91FF90EF90DF90E8
:10793000CF900895CF930E946F3CC82F0E94533C74
:10794000C13614F0C75503C0C0330CF0C0538C2FA0
:10795000CF910895CF930E949A3CC82F0E949A3CE1
:10796000C295C07F8C0FCF910895CF93C82F8823E5
:1079700021F00E946F3CC150E1F7CF910895CF9361
:10798000C82F0E946F3C803251F484E10E94533C26
:107990008C2F0E94533C80E10E94533C0CC080918C
:1079A00004018F5F80930401853029F4E091020186
:1079B000F09103010995CF9108950E946F3C8032A8
:1079C00039F484E10E94533C80E10E94533C0895C5
:1079D000809104018F5F80930401853029F4E09148
:1079E0000201F0910301099508958823B1F02D9AC1
:1079F0002FEF30E742E0215030404040E1F700C037
:107A000000002D982FEF30E742E0215030404040F9
:107A1000E1F700C00000815051F70895000082E0B6
:107A20008093C00080E18093C4001092C50088E17B
:107A30008093C10086E08093C2005098589A259A9E
:107A400081E00E94F53C0F2EF9E0CF2EF2E0DF2E10
:107A5000F02D56010894A108B108442455240F2E96
:107A6000F8E02F2EF1E03F2EF02D0F2EF6E08F2EB6
:107A7000F1E09F2EF02D34010894611C711C0E94CE
:107A80006F3C803319F40E94DD3CF9CF813369F5F6
:107A90000E946F3C8032E1F484E10E94533C81E417
:107AA0000E94533C86E50E94533C82E50E94533C71
:107AB00080E20E94533C89E40E94533C83E50E948B
:107AC000533C80E50E94533C80E10E94533CD7CF59
:107AD000809104018F5F80930401853081F6E091ED
:107AE0000201F09103010995CACF803449F40E9444
:107AF0006F3C863810F00E946F3C0E94DD3CBFCF87
:107B00008134F1F40E946F3C803821F482E00E94BD
:107B1000BF3CB5CF813821F481E00E94BF3CAFCF9C
:107B2000823821F480E10E94BF3CA9CF883921F43A
:107B300083E00E94BF3CA3CF80E00E94BF3C9FCF68
:107B4000823431F484E10E94B53C0E94DD3C97CF41
:107B5000853431F485E00E94B53C0E94DD3C8FCF36
:107B6000803511F0823519F40E94DD3C88CF8135D3
:107B700019F40E94DD3C83CF853559F40E946F3C97
:107B8000F40180830E946F3CF30180830E94DD3CFE
:107B900076CF863511F50E946F3C8033B9F40E9490
:107BA0006F3C0E946F3CD82F0E946F3CDD2321F474
:107BB0008EE10E94BF3C63CFD13021F485E90E9461
:107BC000BF3C5DCF8FE00E94BF3C59CF83E00E9455
:107BD000B53C80E00E94BF3C52CF843609F0E4C03F
:107BE0000E946F3CF60180830E946F3CF501808308
:107BF00080910C028E7F80930C020E946F3C853432
:107C000029F480910C02816080930C02809108021B
:107C100090910902009781F0710182010E946F3CEE
:107C2000F70181937F010F5F1F4F809108029091B0
:107C300009020817190790F30E946F3C803209F07F
:107C4000A5C080910C0280FF2EC08091060190910A
:107C50000701880F991F9093070180930601809177
:107C6000080290910902009709F489C0F10192017C
:107C7000F999FECF809106019091070192BD81BDD7
:107C8000419140BDFA9AF99A019690930701809329
:107C900006012F5F3F4F809108029091090228173B
:107CA000390730F36CC0E7E0F1E08081880F880B82
:107CB000817080930B028091060190910701880FDB
:107CC000991F9093070180930601E8E0F2E080811C
:107CD00080FF09C08091080290910902019690935B
:107CE000090280930802F894F999FECF1127E091D8
:107CF0000601F0910701C8E0D1E08091080290915F
:107D00000902103091F40091570001700130D9F34D
:107D100003E000935700E89500915700017001308F
:107D2000D9F301E100935700E8950990199000916B
:107D3000570001700130D9F301E000935700E89536
:107D40001395103498F011270091570001700130FD
:107D5000D9F305E000935700E895009157000170B2
:107D60000130D9F301E100935700E895329602976C
:107D700009F0C7CF103011F00296E5CF112484E14D
:107D80000E94533C80E10E94533C79CE80910401D3
:107D90008F5F80930401853009F071CEE09102017C
:107DA000F091030109956BCE843709F069C00E94F8
:107DB0006F3CF60180830E946F3CF50180838091C7
:107DC000060190910701880F991F909307018093F6
:107DD00006010E946F3C853431F480910C02816071
:107DE00080930C0205C080910C028E7F80930C0260
:107DF0000E946F3C803209F042CE84E10E94533CE5
:107E000080910802909109020097B1F1820180915E
:107E10000C0280FF16C0F999FECF80910601909167
:107E2000070192BD81BDF89A80B50E94533C8091B4
:107E30000601909107010196909307018093060136
:107E400012C081FD07C0E0910601F0910701849105
:107E50000E94533C809106019091070101969093F6
:107E60000701809306010F5F1F4F809108029091D8
:107E700009020817190758F280E10E94533CFFCD10
:107E8000853711F50E946F3C803281F484E10E94B5
:107E9000533C8EE10E94533C85E90E94533C8FE0A5
:107EA0000E94533C80E10E94533CE9CD8091040143
:107EB0008F5F80930401853009F0E1CDE0910201EC
:107EC000F09103010995DBCD863721F480E00E9413
:107ED000BF3CD5CD809104018F5F80930401853034
:107EE00009F0CDCDE0910201F09103010995C7CDD4
:067EF0000895F894FFCF95
:027EF60080000A
:040000030000780081
:00000001FF
