:020000021000EC
:10F000000C9472F80C9492F80C9492F80C9492F878
:10F010000C9492F80C9492F80C9492F80C9492F848
:10F020000C9492F80C9492F80C9492F80C9492F838
:10F030000C9492F80C9492F80C9492F80C9492F828
:10F040000C9492F80C9492F80C9492F80C9492F818
:10F050000C9492F80C9492F80C9492F80C9492F808
:10F060000C9492F80C9492F80C9492F80C9492F8F8
:10F070000C9492F80C9492F80C9492F80C9492F8E8
:10F080000C9492F80C9492F80C9492F80C9492F8D8
:10F090000C9492F80C9492F80C9492F80C9492F8C8
:10F0A0000C9492F80C9492F80C9492F80C9492F8B8
:10F0B0000C9492F80C9492F80C9492F80C9492F8A8
:10F0C0000C9492F80C9492F80C9492F80C9492F898
:10F0D0000C9492F80C9492F80C9492F80C9492F888
:10F0E0000C9492F811241FBECFEFD1E2DEBFCDBF4A
:10F0F00012E0A0E0B2E0E0EDF9EF01E00BBF02C0EA
:10F1000007900D92A833B107D9F71BBE13E0A8E30F
:10F11000B2E001C01D92A334B107E1F70E949DF94E
:10F120000C94E6FC0C9400F890913B02913041F471
:10F13000E0ECF0E0908195FFFDCF8093C60008954C
:10F14000923039F4E8ECF0E0908195FFFDCF8093A8
:10F15000CE000895CF93C82F859585958595859583
:10F16000805DCF70CA3014F0C95A01C0C05D0E94E2
:10F1700094F88C2F0E9494F8CF910895CF92DF924B
:10F18000EF92FF92CF93DF9380913B02813001F5A4
:10F1900014C00894C11CD11CE11CF11C81E4C816E8
:10F1A00082E4D8068FE0E80680E0F80658F0E091A7
:10F1B0003802F0913902099505C0CC24DD2476018E
:10F1C000C0ECD0E08881882324F78091C60022C05B
:10F1D0008230B1F080E01EC00894C11CD11CE11C3B
:10F1E000F11C81E4C81682E4D8068FE0E80680E0CE
:10F1F000F80658F0E0913802F0913902099505C0FF
:10F20000CC24DD247601C8ECD0E08881882324F763
:10F210008091CE00DF91CF91FF90EF90DF90CF9063
:10F220000895CF930E94BEF8C82F0E9494F8C1366B
:10F2300014F0C75503C0C0330CF0C0538C2FCF91CE
:10F240000895CF930E9411F9C82F0E9411F9C29519
:10F25000C07F8C0FCF910895CF93DF9340913B02F5
:10F26000E0ECF0E066EC70E0A8ECB0E02EEC30E012
:10F2700010C0413031F490819923ECF7EB01988173
:10F2800007C0423029F49C919923ECF7E901988159
:10F290008150882371F7DF91CF910895CF93C82FC4
:10F2A0000E94BEF8803251F484E10E9494F88C2FC1
:10F2B0000E9494F880E10E9494F80CC080913A0278
:10F2C0008F5F80933A02853029F4E0913802F09103
:10F2D00039020995CF9108950E94BEF8803239F421
:10F2E00084E10E9494F880E10E9494F8089580914E
:10F2F0003A028F5F80933A02853029F4E091380218
:10F30000F0913902099508958823B1F02F9A2FEFD3
:10F3100031EE44E0215030404040E1F700C00000B1
:10F320002F982FEF31EE44E0215030404040E1F77C
:10F3300000C00000815051F70895CF93DF9300D0B3
:10F3400000D000D0CDB7DEB7000081E080933B0253
:10F3500080E18093C4001092C5001092C00086E046
:10F360008093C20088E18093C1006898709A279AC0
:10F3700081E00E9484F90F2EFFE3CF2EF3E0DF2E11
:10F38000F02D4601089481089108AA24BB24332457
:10F3900033940F2EFEE36F2EF2E07F2EF02D0F2E12
:10F3A000FCE34F2EF2E05F2EF02DC20101969E830A
:10F3B0008D830E94BEF8803319F40E946CF9F9CF56
:10F3C000813369F50E94BEF88032E1F484E10E9445
:10F3D00094F881E40E9494F886E50E9494F882E50E
:10F3E0000E9494F880E20E9494F889E40E9494F8C4
:10F3F00083E50E9494F880E50E9494F880E10E94E1
:10F4000094F8D7CF80913A028F5F80933A0285308B
:10F4100081F6E0913802F09139020995CACF803423
:10F4200049F40E94BEF8863810F00E94BEF80E948F
:10F430006CF9BFCF8134F1F40E94BEF8803821F41A
:10F4400082E00E944EF9B5CF813821F4832D0E94CD
:10F450004EF9AFCF823821F480E10E944EF9A9CF56
:10F46000883921F483E00E944EF9A3CF80E00E9406
:10F470004EF99FCF823431F484E10E942CF90E942E
:10F480006CF997CF853431F485E00E942CF90E9405
:10F490006CF98FCF803511F0823519F40E946CF928
:10F4A00088CF813519F40E946CF983CF853561F4DA
:10F4B0000E94BEF8D2018C930E94BEF8ED81FE81BD
:10F4C00080830E946CF975CF863511F50E94BEF8D5
:10F4D0008033B9F40E94BEF80E94BEF8082F0E9443
:10F4E000BEF8002321F48EE10E944EF962CF013074
:10F4F00021F487E90E944EF95CCF83E00E944EF927
:10F5000058CF83E00E942CF980E00E944EF951CF41
:10F51000843609F0E6C00E94BEF8D6018C930E94A2
:10F52000BEF8F4018083809142038E7F8093420372
:10F530000E94BEF8853429F4809142038160809353
:10F54000420380913E0390913F03009781F0730145
:10F5500085010E94BEF8D7018D937D010F5F1F4F7B
:10F5600080913E0390913F030817190790F30E9482
:10F57000BEF8803209F0A7C08091420380FF2FC0FF
:10F5800080913C0290913D02880F991F90933D021B
:10F5900080933C0280913E0390913F03009709F4D1
:10F5A0008BC073018501F70161917F0180913C025D
:10F5B00090913D020E94D8FC80913C0290913D02C6
:10F5C000019690933D0280933C020F5F1F4F809104
:10F5D0003E0390913F030817190728F36DC0ADE370
:10F5E000B2E08C91880F880B8321809341038BBFFD
:10F5F00080913C0290913D02880F991F90933D02AB
:10F6000080933C02EEE3F3E0808180FF09C08091AB
:10F610003E0390913F03019690933F0380933E03F6
:10F62000F894F999FECF1127E0913C02F0913D0248
:10F63000CEE3D2E080913E0390913F03103091F4ED
:10F640000091570001700130D9F303E00093570097
:10F65000E8950091570001700130D9F301E1009362
:10F660005700E895099019900091570001700130FA
:10F67000D9F301E000935700E8951395103898F0FE
:10F6800011270091570001700130D9F305E0009374
:10F690005700E8950091570001700130D9F301E15E
:10F6A00000935700E8953296029709F0C7CF1030C3
:10F6B00011F00296E5CF112484E10E9494F880E1D4
:10F6C0000E9494F876CE80913A028F5F80933A023E
:10F6D000853009F06ECEE0913802F091390209953B
:10F6E00068CE843709F085C00E94BEF8D6018C939D
:10F6F0000E94BEF8F401808320913C0230913D02CB
:10F70000332334F48091420382608093420305C026
:10F71000809142038D7F80934203C901880F991F16
:10F7200090933D0280933C020E94BEF8853431F4F0
:10F730008091420381608093420305C0809142031F
:10F740008E7F809342030E94BEF8803209F031CE52
:10F7500084E10E9494F880913E0390913F030097CA
:10F7600009F443C085018091420380FF12C080915B
:10F770003C0290913D020E94D0FC0E9494F880913E
:10F780003C0290913D02019690933D0280933C0291
:10F7900022C081FD08C0E0913C02F0913D028491BD
:10F7A0000E9494F80FC080913C0290913D02A0E02D
:10F7B000B0E080509040AF4FBF4FABBFFC0187918E
:10F7C0000E9494F880913C0290913D0201969093A2
:10F7D0003D0280933C020F5F1F4F80913E0390914A
:10F7E0003F030817190708F4BECF80E10E9494F880
:10F7F000E0CD853711F50E94BEF8803281F484E1B6
:10F800000E9494F88EE10E9494F887E90E9494F88F
:10F8100083E00E9494F880E10E9494F8CACD809120
:10F820003A028F5F80933A02853009F0C2CDE091B1
:10F830003802F09139020995BCCD863721F480E079
:10F840000E944EF9B6CD813209F09BC00E94BEF8ED
:10F85000813209F0AECD0E94BEF8813209F0A9CD07
:10F86000279A2F981092400307C00E9494F8809125
:10F8700040038F5F80934003E0914003F0E0E0504D
:10F88000FE4F8081882389F78AE00E9494F88DE0FA
:10F890000E9494F88AE30E9494F880E20E9494F80F
:10F8A0000E94BEF8082F0E9494F8043761F41F9B51
:10F8B00005C02F9881E30E9494F8E6CF2F9A80E349
:10F8C0000E9494F8E1CF0237B9F40E94BEF80E947A
:10F8D00094F80E9421F9082F0E9421F9E82E8DE367
:10F8E0000E9494F80A831982E981FA81EE0DF11DD4
:10F8F00080810E94AAF8C8CF0737C1F40E94BEF8E1
:10F900000E9494F80E9421F9082F0E9421F9E82E04
:10F910000E94BEF80E9494F80E9421F90C831B8279
:10F92000EB81FC81EE0DF11D8083AECF053729F40C
:10F930000E94BEF80E9494F8FBCF0236C9F482E61A
:10F940000E9494F885E70E9494F883E70E9494F857
:10F9500080E885BF1092740010927500E0E0F1E13C
:10F9600080E091E101C0FC0121913097E9F7FBCFE4
:10F970000A3609F089CFE0913802F09139020995F1
:10F9800083CF80913A028F5F80933A02853009F0ED
:10F9900010CDE0913802F091390209950ACD089511
:10F9A000F999FECF92BD81BDF89A992780B5089547
:10F9B000262FF999FECF1FBA92BD81BD20BD0FB68B
:10F9C000F894FA9AF99A0FBE01960895F894FFCF29
:10F9D00041546D656761424F4F54202F204172643E
:10F9E00075696E6F204D656761202D2028432920A1
:10F9F00041726475696E6F204C4C43202D20303964
:08FA0000303933300A0D00809B
:040000031000F000F9
:00000001FF
