:107800000C94343C0C94513C0C94513C0C94513CE1
:107810000C94513C0C94513C0C94513C0C94513CB4
:107820000C94513C0C94513C0C94513C0C94513CA4
:107830000C94513C0C94513C0C94513C0C94513C94
:107840000C94513C0C94513C0C94513C0C94513C84
:107850000C94513C0C94513C0C94513C0C94513C74
:107860000C94513C0C94513C11241FBECFEFD8E036
:10787000DEBFCDBF11E0A0E0B1E0E4E0FFE702C071
:1078800005900D92A230B107D9F712E0A2E0B1E065
:1078900001C01D92AD30B107E1F70E94113D0C947B
:1078A000803F0C94003CE0ECF0E0908195FFFDCF30
:1078B0008093C6000895CF93C82F859585958595AB
:1078C0008595805DCF70CA3014F0C95A01C0C05D83
:1078D0000E94533C8C2F0E94533CCF910895CF922D
:1078E000DF92EF92FF92CF93DF93CC24DD247601D9
:1078F000C0ECD0E014C00894C11CD11CE11CF11CE8
:1079000081E4C81682E4D8068FE0E80680E0F80635
:1079100030F05A98E0910201F091030109958881B5
:1079200088234CF78091C600DF91CF91FF90EF90B4
:10793000DF90CF900895CF930E946F3CC82F0E9494
:10794000533CC13614F0C75503C0C0330CF0C053CC
:107950008C2FCF910895CF930E949B3CC82F0E94FB
:107960009B3CC295C07F8C0FCF910895CF93C82FB9
:10797000882321F00E946F3CC150E1F7CF91089518
:10798000CF93C82F0E946F3C803251F484E10E9453
:10799000533C8C2F0E94533C80E10E94533C0DC00D
:1079A000809104018F5F80930401853031F45A98EF
:1079B000E0910201F09103010995CF9108950E9491
:1079C0006F3C803239F484E10E94533C80E10E9494
:1079D000533C0895809104018F5F809304018530AA
:1079E00031F45A98E0910201F0910301099508954C
:1079F0008823B1F02D9A2FEF31EE44E02150304032
:107A00004040E1F700C000002D982FEF31EE44E038
:107A1000215030404040E1F700C00000815051F754
:107A200008950000529A5A9A80E18093C4001092FF
:107A3000C50088E18093C10086E08093C200509821
:107A4000589A259A81E00E94F83C0F2EF9E0CF2E3B
:107A5000F2E0DF2EF02D56010894A108B10844246D
:107A600055240F2EF8E02F2EF1E03F2EF02D0F2E93
:107A7000F6E08F2EF1E09F2EF02D34010894611C6A
:107A8000711C0E946F3C803319F40E94DF3CF9CFD7
:107A9000813371F50E946F3C8032E1F484E10E94F1
:107AA000533C81E40E94533C86E50E94533C82E5AE
:107AB0000E94533C80E20E94533C89E40E94533C64
:107AC00083E50E94533C80E50E94533C80E10E9484
:107AD000533CD7CF809104018F5F809304018530A0
:107AE00081F65A98E0910201F09103010995C9CFFE
:107AF000803449F40E946F3C863810F00E946F3C3D
:107B00000E94DF3CBECF8134F1F40E946F3C80388C
:107B100021F482E00E94C03CB4CF813821F481E09E
:107B20000E94C03CAECF823821F480E10E94C03C6C
:107B3000A8CF883921F483E00E94C03CA2CF80E026
:107B40000E94C03C9ECF823431F484E10E94B63C56
:107B50000E94DF3C96CF853431F485E00E94B63C2C
:107B60000E94DF3C8ECF803511F0823519F40E94DF
:107B7000DF3C87CF813519F40E94DF3C82CF853509
:107B800059F40E946F3CF40180830E946F3CF30122
:107B900080830E94DF3C75CF863511F50E946F3CD3
:107BA0008033B9F40E946F3C0E946F3CD82F0E9432
:107BB0006F3CDD2321F48EE10E94C03C62CFD130C6
:107BC00021F485E90E94C03C5CCF8FE00E94C03C5C
:107BD00058CF83E00E94B63C80E00E94C03C51CF69
:107BE000843609F0E5C00E946F3CF60180830E9454
:107BF0006F3CF501808380910C028E7F80930C0294
:107C00000E946F3C853429F480910C02816080933E
:107C10000C028091080290910902009781F0710195
:107C200082010E946F3CF70181937F010F5F1F4F1C
:107C300080910802909109020817190790F30E9499
:107C40006F3C803209F0A5C080910C0280FF2EC0ED
:107C50008091060190910701880F991F9093070169
:107C6000809306018091080290910902009709F41F
:107C700089C0F1019201F999FECF8091060190919E
:107C8000070192BD81BD419140BDFA9AF99A0196D2
:107C900090930701809306012F5F3F4F8091080268
:107CA000909109022817390730F36CC0E7E0F1E042
:107CB0008081880F880B817080930B028091060170
:107CC00090910701880F991F9093070180930601F7
:107CD000E8E0F2E0808180FF09C080910802909185
:107CE000090201969093090280930802F894F99989
:107CF000FECF1127E0910601F0910701C8E0D1E025
:107D00008091080290910902103091F4009157007F
:107D100001700130D9F303E000935700E89500911A
:107D2000570001700130D9F301E100935700E89545
:107D3000099019900091570001700130D9F301E0CA
:107D400000935700E8951395103498F0112700918F
:107D5000570001700130D9F305E000935700E89512
:107D60000091570001700130D9F301E100935700F1
:107D7000E8953296029709F0C7CF103011F00296BD
:107D8000E5CF112484E10E94533C80E10E94533CE2
:107D900078CE809104018F5F80930401853009F0D3
:107DA00070CE5A98E0910201F0910301099569CED5
:107DB000843709F069C00E946F3CF60180830E94FD
:107DC0006F3CF50180838091060190910701880F37
:107DD000991F90930701809306010E946F3C8534A0
:107DE00031F480910C02816080930C0205C0809177
:107DF0000C028E7F80930C020E946F3C803209F04F
:107E000040CE84E10E94533C809108029091090287
:107E10000097B1F1820180910C0280FF16C0F999A0
:107E2000FECF809106019091070192BD81BDF89A25
:107E300080B50E94533C8091060190910701019604
:107E4000909307018093060112C081FD07C0E09165
:107E50000601F091070184910E94533C8091060134
:107E600090910701019690930701809306010F5F9F
:107E70001F4F80910802909109020817190758F2C4
:107E800080E10E94533CFDCD853719F50E946F3C7F
:107E9000803281F484E10E94533C8EE10E94533C85
:107EA00085E90E94533C8FE00E94533C80E10E9490
:107EB000533CE7CD809104018F5F809304018530AE
:107EC00009F0DFCD5A98E0910201F0910301099584
:107ED000D8CD863721F480E00E94C03CD2CD80917D
:107EE00004018F5F80930401853009F0CACD5A9850
:107EF000E0910201F09103010995C3CD5A980895CC
:047F0000F894FFCF23
:027F04008000FB
:040000030000780081
:00000001FF
