:103800000C94341C0C94511C0C94511C0C94511CA1
:103810000C94511C0C94511C0C94511C0C94511C74
:103820000C94511C0C94511C0C94511C0C94511C64
:103830000C94511C0C94511C0C94511C0C94511C54
:103840000C94511C0C94511C0C94511C0C94511C44
:103850000C94511C0C94511C0C94511C0C94511C34
:103860000C94511C0C94511C11241FBECFEFD4E0BA
:10387000DEBFCDBF11E0A0E0B1E0E2E2FFE302C0B5
:1038800005900D92A230B107D9F712E0A2E0B1E0A5
:1038900001C01D92AD30B107E1F70E940E1D0C94DE
:1038A0008F1F0C94001CE0ECF0E0908195FFFDCFA1
:1038B0008093C6000895CF93C82F859585958595EB
:1038C0008595805DCF70CA3014F0C95A01C0C05DC3
:1038D0000E94531C8C2F0E94531CCF910895CF92AD
:1038E000DF92EF92FF92CF93DF93CC24DD24760119
:1038F000C0ECD0E013C00894C11CD11CE11CF11C29
:1039000081E4C81682E4D8068FE0E80680E0F80675
:1039100028F0E0910201F091030109958881882344
:1039200054F78091C600DF91CF91FF90EF90DF9028
:10393000CF900895CF930E946F1CC82F0E94531CF4
:10394000C13614F0C75503C0C0330CF0C0538C2FE0
:10395000CF910895CF930E949A1CC82F0E949A1C61
:10396000C295C07F8C0FCF910895CF93C82F882325
:1039700021F00E946F1CC150E1F7CF910895CF93C1
:10398000C82F0E946F1C803251F484E10E94531CA6
:103990008C2F0E94531C80E10E94531C0CC080910C
:1039A00004018F5F80930401853029F4E0910201C6
:1039B000F09103010995CF9108950E946F1C803208
:1039C00039F484E10E94531C80E10E94531C089545
:1039D000809104018F5F80930401853029F4E09188
:1039E0000201F0910301099508958823B1F02D9A01
:1039F0002FEF31EE44E0215030404040E1F700C06D
:103A000000002D982FEF31EE44E02150304040402F
:103A1000E1F700C00000815051F70895CF93DF9384
:103A200000D0CDB7DEB784B714BEE0E6F0E09081F9
:103A300098619083108281FD05C0E0910201F091B0
:103A40000301099583E38093C4001092C50088E1C7
:103A50008093C10086E08093C2005098589A259ABE
:103A600081E00E94F51C0F2EF9E0CF2EF2E0DF2E50
:103A7000F02D4601089481089108AA24BB24332420
:103A800033940F2EF8E06F2EF1E07F2EF02D0F2EE5
:103A9000F6E04F2EF1E05F2EF02DC20101969A83E1
:103AA00089830E946F1C803319F40E94DD1CF9CFBA
:103AB000813369F50E946F1C8032E1F484E10E9439
:103AC000531C81E40E94531C86E50E94531C82E52E
:103AD0000E94531C80E20E94531C89E40E94531CE4
:103AE00083E50E94531C80E50E94531C80E10E94E4
:103AF000531CD7CF809104018F5F809304018530E0
:103B000081F6E0910201F09103010995CACF80345A
:103B100049F40E946F1C863810F00E946F1C0E94AE
:103B2000DD1CBFCF8134F1F40E946F1C803821F47A
:103B300082E00E94BF1CB5CF813821F4832D0E9402
:103B4000BF1CAFCF823821F480E10E94BF1CA9CFF7
:103B5000883921F483E00E94BF1CA3CF80E00E943B
:103B6000BF1C9FCF823431F484E10E94B51C0E94B7
:103B7000DD1C97CF853431F485E00E94B51C0E948E
:103B8000DD1C8FCF803511F0823519F40E94DD1CC9
:103B900088CF813531F40E94DD1C88E0809360007D
:103BA000FFCF853561F40E946F1CF20180830E9473
:103BB0006F1CE981FA8180830E94DD1C72CF8635FB
:103BC00011F50E946F1C8033B9F40E946F1C0E9493
:103BD0006F1C082F0E946F1C002321F48EE10E94AD
:103BE000BF1C5FCF013021F484E90E94BF1C59CF74
:103BF00086E00E94BF1C55CF83E00E94B51C80E088
:103C00000E94BF1C4ECF843609F0E4C00E946F1C96
:103C1000F60180830E946F1CF401808380910C0266
:103C20008E7F80930C020E946F1C853429F4809152
:103C30000C02816080930C0280910802909109022D
:103C4000009781F0730185010E946F1CF701819339
:103C50007F010F5F1F4F80910802909109020817A2
:103C6000190790F30E946F1C803209F0A5C0809163
:103C70000C0280FF2EC08091060190910701880FF1
:103C8000991F9093070180930601809108029091FB
:103C90000902009709F489C0F3019501F999FECF53
:103CA000809106019091070192BD81BD419140BD77
:103CB000FA9AF99A019690930701809306012F5F73
:103CC0003F4F80910802909109022817390730F37D
:103CD0006CC0E7E0F1E08081880F880B832180933E
:103CE0000B028091060190910701880F991F909314
:103CF000070180930601E8E0F2E0808180FF09C0BF
:103D00008091080290910902019690930902809394
:103D10000802F894F999FECF1127E0910601F0917D
:103D20000701C8E0D1E080910802909109021030AB
:103D300091F40091570001700130D9F303E0009332
:103D40005700E8950091570001700130D9F301E167
:103D500000935700E8950990199000915700017061
:103D60000130D9F301E000935700E8951395103422
:103D700098F011270091570001700130D9F305E048
:103D800000935700E8950091570001700130D9F376
:103D900001E100935700E8953296029709F0C7CFEA
:103DA000103011F00296E5CF112484E10E94531CDB
:103DB00080E10E94531C75CE809104018F5F809337
:103DC0000401853009F06DCEE0910201F09103010C
:103DD000099567CE843709F069C00E946F1CF6010F
:103DE00080830E946F1CF401808380910601909172
:103DF0000701880F991F90930701809306010E9485
:103E00006F1C853431F480910C02816080930C0228
:103E100005C080910C028E7F80930C020E946F1C63
:103E2000803209F03ECE84E10E94531C809108024A
:103E3000909109020097B1F1850180910C0280FFF9
:103E400016C0F999FECF809106019091070192BDAD
:103E500081BDF89A80B50E94531C80910601909113
:103E600007010196909307018093060112C081FD1E
:103E700007C0E0910601F091070184910E94531C54
:103E8000809106019091070101969093070180931C
:103E900006010F5F1F4F80910802909109020817D9
:103EA000190758F280E10E94531CFBCD853711F5AC
:103EB0000E946F1C803281F484E10E94531C8EE1C9
:103EC0000E94531C84E90E94531C86E00E94531CEC
:103ED00080E10E94531CE5CD809104018F5F8093A7
:103EE0000401853009F0DDCDE0910201F09103017C
:103EF0000995D7CD863721F480E00E94BF1CD1CD33
:103F0000809104018F5F80930401853009F0C9CD51
:103F1000E0910201F09103010995C3CD0895F89451
:023F2000FFCFD1
:023F220080001D
:0400000300003800C1
:00000001FF
